:020000040800F2
:10000000E80C0020C900000871170008211400083E
:1000100000000000000000000000000000000000E0
:10002000000000000000000000000000771700083A
:100030000000000000000000751700087917000894
:10004000DB00000800000000DB000008DB00000807
:10005000DB000008DB000008DB000008DB00000814
:1000600000000000DB000008DB000008DB000008E7
:10007000DB000008DB000008DB00000800000000D7
:10008000DB0000080000000000000000DB000008AA
:1000900000000000DB000008DB000008DB000008B7
:1000A00000000000DB00000800000000DB0000088A
:1000B0000448854600F0B6F80048004719190008C2
:1000C000C046C046E80C002004488047044800476A
:1000D000FEE7FEE7FEE7FEE7FEE7FEE7F3170008B0
:1000E000B100000830B50B46014600202022012453
:1000F00009E00D46D5409D4205D31D469540491B5C
:100100002546954040191546521E002DF1DC30BDA4
:1001100070B500242546002801DA01244042002958
:1001200001DA01254942FFF7DDFFAC4200D0404231
:10013000002C00D0494270BDF0B51FB40646002027
:1001400082B005464024019100901BE001992246AF
:100150000F46304600F020F8049A059B801A99411A
:1001600010D310461946224600F04BF8361A8F413C
:100170000197224601200021009F00F042F8381824
:100180004D4100902046641E0028DFDC019B009852
:100190002946324607B0F0BD10B5202A04DB0846D8
:1001A000203AD040002110BD0B46D340D04020243F
:1001B000A21A91400843194610BD03460B439B0702
:1001C00003D009E008C9121F08C0042AFAD203E0CC
:1001D0000B780370401C491C521EF9D27047D2B2F2
:1001E00001E00270401C491EFBD270470022F6E776
:1001F00010B513460A4604461946FFF7F0FF20469D
:1002000010BD10B5202A04DB0146203A91400020A1
:1002100010BD914020239C1A0346E34019439040AF
:1002200010BD0000064C0125064E05E0E36807CC32
:100230002B430C3C98471034B442F7D3FFF73CFFF4
:10024000EC2300080C24000872B600BFFEE7000093
:1002500070B5044600F016F906462546681C0028CD
:1002600002D0054800782D1800BF00F00BF9801B64
:10027000A842FAD370BD00006000002078B50346A4
:100280000022DDE0012696400C683440002C7DD031
:100290004D68012D08D04D68022D05D04D68112DF7
:1002A00002D04D68122D18D1986856000325B5402C
:1002B0000646AE4330465600CD68B54028439860A8
:1002C0005868012595400646AE43304610264D68D5
:1002D00035402D09954028435860D86856000325BD
:1002E000B5400646AE43304656008D68B5402843BB
:1002F000D8604D68022D02D04D68122D15D1D50859
:10030000AE001D462035A8595507EE0E0F25B54005
:100310000646AE4330465607F60E0D69B5402843F3
:10032000D508AD001E4620367051186856000325CA
:10033000B5400646AE4330460D79AD07AD0F5600C9
:10034000B54028431860012636074D683540B54250
:1003500075D100BF3D4DAD69012635433B4EB561BA
:100360003546AD69ED07ED0F009500BF00BF384D74
:100370009608B600A85995072E0F0F25B5400646DA
:10038000AE4330460925ED06AB4200E057E001D10F
:1003900000250FE02F4DAB4201D101250AE02E4D83
:1003A000AB4201D1022505E02C4DAB4201D1032522
:1003B00000E005259607360FB5402843244D9608E2
:1003C000B600A851264D28680546A54328460126B3
:1003D00036044D683540B54202D1054625432846CE
:1003E0001F4D286068680546A54328460126760407
:1003F0004D683540B54202D1054625432846184D83
:100400006860A8680546A5432846012636054D685C
:100410003540B54202D1054625432846104DA86017
:10042000E8680546A5432846012676054D6835400F
:10043000B54202D1054625432846094DE860521CC5
:100440000D68D540002D00D01CE778BD001002409B
:10045000080001400004004800080048000C004863
:1004600000040140024613690B40002B01D001201B
:1004700000E000207047002A01D0816100E0816225
:1004800070470000014800687047000058000020D5
:1004900002464120805C20282FD100BF4020805C94
:1004A000012801D10220704701234020835400BF5E
:1004B00024234120835410680068400840001368DA
:1004C00018601068006801231B03984313681860C4
:1004D00010680068084313681860106800680123FA
:1004E00018431368186020234120835400BF002361
:1004F0004020835400BF0020D5E70220D3E710B589
:1005000002460B464120805C20282ED100BF4020AF
:10051000805C012801D1022010BD012440208454B8
:1005200000BF242441208454106800684008400023
:1005300014682060106801680F2424020846A04354
:100540000146180201431068016010680068012428
:1005500020431468206020244120845400BF0024DC
:100560004020845400BF0020D6E70220D4E70000DA
:1005700010B50446002C01D1012010BD4120005DC2
:10058000002805D1002140200155204600F05AF8EE
:10059000242141200155206800684008400021685E
:1005A00008600F2109066068884321680861206897
:1005B00080680121C903884321688860E0680128B8
:1005C00006D10121C903A06808432168886005E0BD
:1005D00021218902A068084321688860E068022818
:1005E00002D18002216848602068406814490843AD
:1005F000216848602068C0680121C90388432168D8
:10060000C860616920690843A1690902084321683B
:10061000C860216AE06908432168086020680068B2
:1006200001210843216808600020606420214120E6
:1006300001550020206300214220015500209CE745
:100640000080000210B586B00446142101A8FFF70F
:10065000CDFD1B49206888422FD100BF1948406951
:1006600001214904084317494861084640690121AE
:1006700049040840009000BF00BF032040020190E1
:100680001220029001200390032004900420059082
:1006900001A90920C006FFF7F1FD00BF0948C069A4
:1006A0000121490508430749C8610846C06901217D
:1006B00049050840009000BF00BF06B010BD000013
:1006C0000054004000100240FFB581B004460E46C1
:1006D00017464120005D202871D1002E01D0002F47
:1006E00005D1012040026064012005B0F0BD00BFCB
:1006F0004020005D012801D10220F6E701214020C1
:10070000015500BFFFF7BEFE0546222141200155DD
:100710002021422001550020606466626785606385
:10072000206840688902884321684860009500225B
:1007300008212046049B00F0DFFE002808D0206836
:1007400040680121C9030843216848600120CCE7C3
:1007500008202168C8610095012241032046049BBE
:1007600000F0CAFE002808D0206840680121C903B3
:100770000843216848600120B7E72BE02A4620465D
:10078000049900F0E5FE00281AD020684068012195
:10079000C903084321684860206880690421084033
:1007A0008008002809D02068406A616A0870606A81
:1007B000401C6062608D401E6085012095E744E02A
:1007C0002068406A616A0870606A401C6062608DDF
:1007D000401E6085608D0028D0D12A4620460499AD
:1007E00000F00EFF002808D0206840680121C903EE
:1007F000084321684860012077E720202168C8610C
:100800000095012281022046049B00F075FE00281D
:1008100008D0206840680121C90308432168486066
:10082000012062E7206840680121C903084321686C
:10083000486020214120015500214220015500BF80
:100840004020015500BF00204FE702204DE7FFB5D3
:1008500081B004460E4617464120005D202879D11C
:10086000002E01D0002F05D101204002606401203C
:1008700005B0F0BD00BF4020005D012801D102207D
:10088000F6E701214020015500BFFFF7FBFD0546BB
:100890002121412001552021422001550020606482
:1008A00066626785606320684068890288432168C2
:1008B00048600095002208212046049B00F01CFEA1
:1008C000002808D0206840680121C9030843216836
:1008D00048600120CCE708202168C861E068022850
:1008E00014D10095002208212046049B00F004FE4C
:1008F000002808D0206840680121C9030843216806
:1009000048600120B4E708202168C86100950022F2
:10091000012109042046049B00F0EEFD002808D0C8
:10092000206840680121C90308432168486001200C
:100930009EE71AE02A462046049900F08EFE002821
:1009400009D0206840680121C90308432168486034
:1009500001208DE74AE0606A007821688862606A59
:10096000401C6062608D401E6085608D0028E1D172
:100970002A462046049900F043FE00280ED0206845
:1009800040680121C903084321684860606C04285D
:1009900002D10020606401E0012069E72020216885
:1009A000C8610095012281022046049B00F0A4FD4D
:1009B000002808D0206840680121C9030843216845
:1009C0004860012054E7206840680121C9030843BA
:1009D0002168486020214120015500214220015515
:1009E00000BF4020015500BF002041E702203FE743
:1009F00003480068034909784018014908607047B6
:100A0000580000206000002010B506480068102142
:100A1000084304490860002000F006F800F02EF8B2
:100A2000002010BD0020024070B504461048017837
:100A30007D20C000FFF756FB064631460D48006892
:100A4000FFF750FB054600F0CFFC002801D0012045
:100A500070BD042C07D200222146501E00F02EF853
:100A60000548046001E00120F2E70020F0E7000003
:100A700060000020640000205C00002008B500BF7A
:100A80000D488069012108430B4988610846806947
:100A9000C007C00F009000BF00BF00BF0846C0697C
:100AA000090408430449C8610846C06909040840AC
:100AB000009000BF00BF08BD0010024070B50446A2
:100AC0000D4616462946204600F0ACFE70BD0000DB
:100AD000F8B50446002600250121090420680840D5
:100AE00088427AD100274B48C06909030840002892
:100AF0000DD100BF4748C06908434649C861084650
:100B0000C06909040840009000BF00BF01274248A7
:100B10000068FF2101310840002816D13E480068D6
:100B200008433D490860FFF7ADFC064606E0FFF7C5
:100B3000A9FC801B642801D90320F8BD3648006851
:100B4000FF21013108400028F1D03248006A03211A
:100B5000090208400546002D2DD060680840A842D3
:100B600029D02C48006A884305462A48006A01219A
:100B700009040843274908620846006A012109045C
:100B800088432449086208460562E807C00F002828
:100B900011D0FFF777FC064607E0FFF773FC801BD8
:100BA0001E49884201D90320C7E71A48006A02217A
:100BB00008400028F1D01748006A03210902884341
:100BC0006168084313490862012F05D10846C069CE
:100BD000090488430F49C86100BF2078C007C00FCF
:100BE000002807D00B48006B80088000A1680843EC
:100BF00008490863202120680840202807D10548BB
:100C0000006B10218843E168084302490863002013
:100C100093E70000001002400070004088130000BD
:100C200070B504460D46002C01D1012070BD52481C
:100C30000068C007C00FA8420ED24F4800684008A5
:100C4000400028434C49086008460068C007C00FB0
:100C5000A84201D00120E9E70221206808400228CB
:100C600014D1042120680840042807D14348406873
:100C70000721090288434018404948603F484068BE
:100C8000F0218843A16808433C4948602078C007A8
:100C9000C00F00283BD06068012808D137480068A1
:100CA000012149040840002815D10120BEE76068F1
:100CB000022808D13148006801214906084000286F
:100CC00009D10120B2E72D48006802210840002820
:100CD00001D10120AAE729484068800880006168A6
:100CE000084326494860FFF7CDFB064607E0FFF7BB
:100CF000C9FB801B2249884201D9032096E71F487F
:100D000040680C210840616889008842EFD11A4888
:100D10000068C007C00FA8420ED9174800684008F5
:100D2000400028431449086008460068C007C00F07
:100D3000A84201D0012079E7042120680840042856
:100D400008D10E484068072109028843E16808433A
:100D50000A49486000F01AF808494968F022114031
:100D60000909084A515CC840074908600020FFF79C
:100D70005BFE00205AE70000002002400010024005
:100D800088130000D423000864000020F0B589B067
:100D900027A001460EC9C06805AC0EC4089028A063
:100DA00001460EC9C06801AC0EC4049000240025A1
:100DB0000027002600200090254844680C20204091
:100DC00000282DD0042802D0082828D102E021488C
:100DD000009028E00F2080042040800C05A90E5CC4
:100DE0001B48C06A0007000F01A90D5C0120000428
:100DF00020400121090488420AD12A4600231548CF
:100E00001946FFF799F9314600F0F4FC074604E073
:100E10001148314600F0EEFC0746009703E000BFA2
:100E20000C48009000BF00BF009809B0F0BD000062
:100E300002030405060708090A0B0C0D0E0F10101B
:100E40000102030405060708090A0B0C0D0E0F101A
:100E50000010024000127A0000093D00FEB5044671
:100E6000002C01D10120FEBD2078C007C00F002852
:100E700071D0FC4840680C21084004280BD0F94888
:100E800040680840082812D1F6484068012109044A
:100E9000084088420BD1F34800680121490408400A
:100EA00000286BD06068002868D10120DBE700BF14
:100EB0006068012807D1EB48006801210904084354
:100EC000E849086031E0606800280ED1E548006814
:100ED000012109048843E3490860084600680121AC
:100EE00089048843DF4908601FE0606805280ED147
:100EF000DC480068012189040843DA490860084693
:100F00000068012109040843D64908600DE0D5486E
:100F10000068012109048843D24908600846006836
:100F2000012189048843CF49086000BF6068002818
:100F300012D0FFF7A7FA054606E0FFF7A3FA401B19
:100F4000642801D903208EE7C648006801214904BE
:100F500008400028F1D011E0FFF794FA054606E0BA
:100F6000FFF790FA401B642801D903207BE7BD48B6
:100F700000680121490408400028F1D102212068BD
:100F80000840022861D1B74840680C210840002879
:100F90000BD0B4484068084008281BD1B1484068CD
:100FA000012109040840002814D1AE48006802213C
:100FB0000840002804D0E068012801D0012052E751
:100FC000A8480068F82188432169C9000843A54959
:100FD00008603AE0E068002820D0A24800680121BB
:100FE0000843A0490860FFF74DFA054606E0FFF701
:100FF00049FA401B022801D9032034E799480068C8
:10100000022108400028F2D096480068F821884361
:101010002169C90008439349086016E091480068B7
:10102000400840008F490860FFF72CFA054606E0AB
:10103000FFF728FA401B022801D9032013E789484B
:101040000068022108400028F2D1082120680840E9
:10105000082831D1E069002817D08248406A012170
:10106000084380494862FFF70DFA054606E0FFF79E
:1010700009FA401B022801D90320F4E67948406AA6
:10108000022108400028F2D016E07648406A400865
:10109000400074494862FFF7F5F9054606E0FFF79E
:1010A000F1F9401B022801D90320DCE66D48406AB3
:1010B000022108400028F2D10421206808400428B9
:1010C00073D1002001906748C06989060840002854
:1010D0000ED100BF6348C06908436249C861084631
:1010E000C06909040840009000BF00BF01200190C2
:1010F0005D480068FF2101310840002816D15A4898
:101100000068084358490860FFF7BCF9054606E047
:10111000FFF7B8F9401B642801D90320A3E6524821
:101120000068FF21013108400028F1D000BFA0680D
:10113000012806D14B48006A012108434949086249
:101140002BE0A06800280CD14648006A4008400007
:10115000444908620846006A0421884341490862FC
:101160001BE0A06805280CD13E48006A0421084312
:101170003C4908620846006A01210843394908626F
:101180000BE03848006A40084000364908620846CB
:10119000006A042188433349086200BFA068002820
:1011A00013D0FFF76FF9054608E02BE0FFF76AF967
:1011B000401B2E49884201D9032054E62948006A81
:1011C000022108400028F1D011E0FFF75BF9054645
:1011D00007E0FFF757F9401B2449884201D9032053
:1011E00041E62048006A022108400028F1D1019818
:1011F000012806D11B48C069012109078843194904
:10120000C86100BF102120680840102860D16069C3
:1012100001282DD11348406B04210843114948632C
:101220000846406B012108430E494863FFF72AF93D
:10123000054606E0FFF726F9401B022801D90320E6
:1012400011E60848406B022108400028F2D005480A
:10125000406BF8218843A169C900084301494863EC
:1012600036E00000001002400070004088130000CB
:101270006069401D00280FD15A48406B0421884303
:10128000584948630846406BF8218843A169C90062
:101290000843544948631BE05248406B042108430B
:1012A000504948630846406B400840004863FFF7D8
:1012B000E9F8054606E0FFF7E5F8401B022801D9EA
:1012C0000320D0E54748406B022108400028F2D1B6
:1012D000206A00284FD0434840680C210840082865
:1012E00064D0206A022847D13E48006801210906DF
:1012F00088433C490860FFF7C5F8054606E0FFF75C
:10130000C1F8401B022801D90320ACE5354800682C
:101310000121490608400028F1D100BF3148C06AC8
:1013200000090001E16A08432E49C862616AA06AA7
:1013300008432C4949683D22120491430843294936
:10134000486000BF08460068012109060843254996
:101350000860FFF797F8054606E0FFF793F8401B93
:10136000022801D903207EE51E48006801214906B4
:1013700008400028F1D033E01A480068012109062E
:10138000884318490860FFF77DF8054606E0FFF737
:1013900079F8401B022801D9032064E51148006850
:1013A0000121490608400028F1D119E0206A0128EE
:1013B00000D158E50B484668C76A01200004304058
:1013C000616A88420AD13907090FE06A814205D172
:1013D0000F2080043040A16A884201D0012042E5FC
:1013E000002040E50010024070B504462546681E06
:1013F0000949884201D901200CE0681E074948616B
:101400000321081F00F00EFA00200449886107201C
:101410000861002070BD0000FFFFFF0000E000E059
:1014200000BFFEE7016889690222114049080029CE
:1014300002D000210268916201688969C907C90F59
:10144000012251405140002904D1016889691143AA
:10145000026891617047000070B504460D4616465B
:101460002068806910210840000900283FD018E05A
:10147000681C002815D0FFF705F8801BA84201D88A
:10148000002D0ED1606C202108436064412001557D
:1014900000214220015500BF4020015500BF01201E
:1014A00070BD206880692021084040090028DFD0F5
:1014B00010202168C86120202168C8612046FFF7FC
:1014C000B1FF206840680B49084021684860606CA3
:1014D000042108436064202141200155002142205D
:1014E000015500BF4020015500BF0120D8E7002072
:1014F000D6E7000000E800FEF8B504460E461746A1
:101500001D4619E0681C002816D0FEF7BBFF06999F
:10151000401AA84201D8002D0ED1606C202108434A
:1015200060644120015500214220015500BF402048
:10153000015500BF0120F8BD206880693040B042ED
:1015400001D1012000E00020B842DBD00020F2E70A
:1015500070B504460D46164646E0324629462046FA
:10156000FFF77AFF002801D0012070BD2068806954
:10157000202108404009002822D0206880690421E9
:1015800008408008002804D0208D002801D00020C9
:10159000EBE720202168C8612068406817490840AF
:1015A000216848600020606420214120015500210D
:1015B0004220015500BF4020015500BF0120D4E763
:1015C000FEF760FF801BA84201D8002D0CD1606C93
:1015D0002021084360644120015500BF00214020C4
:1015E000015500BF0120C0E7206880690421084040
:1015F00080080028B1D00020B7E7000000E800FE16
:1016000070B504460D4616461EE032462946204671
:10161000FFF722FF002801D0012070BDFEF732FF46
:10162000801BA84201D8002D0ED1606C20210843F8
:1016300060644120015500214220015500BF402037
:10164000015500BF0120E8E720688069202108409B
:1016500040090028D9D00020DFE770B504460D46C8
:10166000164621E0324629462046FFF7F5FE0028BF
:1016700001D0012070BD681C002815D0FEF702FFC4
:10168000801BA84201D8002D0ED1606C2021084398
:1016900060644120015500214220015500BF4020D7
:1016A000015500BF0120E5E720688069022108405C
:1016B00040080028D6D00020DCE7000000B587B045
:1016C000142102A8FEF792FD00BF114840690121D4
:1016D000490408430E49486108464069012149040C
:1016E0000840019000BF00BF00220A210920C00667
:1016F000FEF7C1FE0A200290012003900020049012
:10170000059002A90920C006FEF7B8FD07B000BD8C
:101710000010024010B51348134908601348486090
:101720000021114881600121C160002101614161F6
:101730008161C1610162FEF71BFF002801D0FEF745
:1017400083FD00210848FEF7A3FE002801D0FEF724
:101750007BFD00210448FEF7D2FE002801D0FEF7F1
:1017600073FD10BD00540040980600202B1D200082
:1017700000BFFEE77047704710B5FFF739F910BD9D
:1017800000B595B0302109A8FEF730FD0020059086
:101790000690079008900190029003900490022018
:1017A000099001200C9010200D900020119009A8A4
:1017B000FFF754FB002801D0FEF746FD07200590F7
:1017C0000020069007900890002105A8FFF728FA4E
:1017D000002801D0FEF738FD202001900020049061
:1017E00001A8FFF775F9002801D0FEF72DFD15B00F
:1017F00000BD7047F8B582B28BB2040C0D0C1046D8
:101800005843002126465E43370C3604801979413F
:1018100016466E43370C36048019794126466E43CE
:101820008919F8BD10B5002819DB1A4A03231B02D9
:10183000D21883089B00D2588307DC0EFF23A340F5
:101840009A438B071B0E8407E40EA3401A43114BE7
:10185000032424021B198408A4001A5118E00E4A1C
:1018600003071B0F083B9B089B00D2588307DC0E25
:10187000FF23A3409A438B071B0E8407E40EA3406B
:101880001A43054B0407240F083CA408A4001A516E
:1018900010BD000000E100E01CED00E002E008C81F
:1018A000121F08C1002AFAD170477047002001E0DA
:1018B00001C1121F002AFBD17047000010B500289B
:1018C00023D0124B0022001F196803E0814203D885
:1018D0000A4649680029F9D1002A0AD01368841AF7
:1018E0009C4204D1006818181060104602E0506055
:1018F00000E01860002907D002680B1A934203D158
:101900000B68D21802604968416010BD6800002071
:1019100001460020704700001FB5FFF775F8FFF77C
:101920002FFFFFF7CBFEFFF7F5FE00F0FDFA15489D
:101930000588284600F030F8044600200090019009
:101940001EE0114803680F48028821460F48FEF741
:10195000BBFE60780C2809D102A903A800F0CEFADA
:1019600068460189808900F07FFB08E00848036829
:101970000848028869460548FEF769FF00BF00BFB6
:10198000DFE700004C0000205000002098060020F7
:10199000540000204E000020F0B50B30C108C900F3
:1019A000144F0026144A0FE003688B420BD38B427E
:1019B00005D95C1A4318456830C3083B00E043680A
:1019C000136002C004E0021D10680028ECD130460C
:1019D000002803D13868002801D00020F0BD064A55
:1019E00006481060064A121AD208D20044C00120EC
:1019F0003860D7E76C00002068000020EC0600206B
:101A0000E808002070B505460C480078012811D17F
:101A100029890A481C3000F00BFA0446002C02D039
:101A20000020C04370BD284600F042FB002003495F
:101A30000870F7E70020C043F4E7000070000020C2
:101A400010B504462046FF38913819218901FEF768
:101A50005FFBE52148430D30C0B210BD10B5044610
:101A60007D21C9002046FEF753FBE52148430D3098
:101A7000C0B210BD00B585B0142205496846FEF716
:101A80009CFB69460920C006FEF7F8FB05B000BDC7
:101A9000AC23000800B585B0142208496846FEF75B
:101AA0008CFB69460920C006FEF7E8FB00220221F4
:101AB0000920C006FEF7DFFC05B000BDC02300080A
:101AC00000B585B0142205496846FEF776FB6946E5
:101AD0000920C006FEF7D2FB05B000BD8423000834
:101AE00000B585B0142208496846FEF766FB6946D2
:101AF0000920C006FEF7C2FB002208210920C0060B
:101B0000FEF7B9FC05B000BD9823000810B5082108
:101B10000920C006FEF7A6FC012800D110BD002058
:101B2000FCE770B505460E4614463146284600F0DF
:101B300007F8A04202D00020C04370BD0020FCE79F
:101B400070B502460B46FF20002114E0555C68404A
:101B500008240CE080250540002D04D045003126E6
:101B60007540E8B201E04506280E651EECB2002C77
:101B7000F0DC4D1CA9B29942E8DB70BD10B500F055
:101B8000C7F810BDF8B505460E46174600F04CF8EC
:101B90006900491CC8B200F089F80090009800283C
:101BA00003D000F04DF80098F8BD002405E00120B6
:101BB00000F009F83055601C84B2BC42F7DB00F03D
:101BC0003FF80098F0E770B505460026FFF778FF6C
:101BD000072412E0052000F0B3F8FFF74BFFFFF7F2
:101BE00095FF002801D0012000E00020A0403043F4
:101BF000C6B2FFF74FFF601E44B2002CEADA002D98
:101C000002D0FFF76DFF01E0FFF75AFF052000F05B
:101C100097F8FFF72FFF052000F092F8FFF73AFF43
:101C2000FFF74EFF304670BD10B5FFF759FF052096
:101C300000F086F8FFF72EFF052000F081F810BDB8
:101C400010B5FFF74DFF052000F07AF8FFF712FFFF
:101C5000052000F075F8FFF733FF052000F070F85D
:101C600010BDF7B506460F46FFF7DEFF7106080EFA
:101C700000F01CF80546002D03D0FFF7E1FF2846D1
:101C8000FEBD00240AE0385D00F010F80546002D86
:101C900002D0FFF7D5FF04E0601C84B202988442B2
:101CA000F1DB00BFFFF7CCFF2846E9E770B505463A
:101CB000072416E0FFF7EEFE28462041C007C00FBC
:101CC000002802D0FFF7FCFE01E0FFF709FF052026
:101CD00000F036F8FFF7CEFE052000F031F8601E68
:101CE00044B2002CE6DAFFF7D5FEFFF7E9FE052047
:101CF00000F026F8FFF7BEFEFFF708FF002801D02E
:101D0000012000E000200646FFF7C4FE304670BD0B
:101D100008B500BF09484069012149040843074943
:101D2000486108464069012149040840009000BF0D
:101D300000BFFFF7C5FEFFF79DFE08BD0010024083
:101D400010B504462046FEF783FA10BDF0B50346F1
:101D50000020C0431E7836021F883F123E43B5B2B2
:101D60001E4E35821E4E1D4FBE61002430E01D4EBA
:101D70003668A700F159002224E057008E68F65B10
:101D8000E0273E40002E07DD57008E68F65B164FB9
:101D90003E402F40BE420FD057008E68F65BE027D2
:101DA0003E40002E0CD157008E68F65B0E4F1F3759
:101DB0003E402F40BE4203D1084EB161002004E0F6
:101DC000561C32B28E899642D7DC00BF661C34B2F4
:101DD000044EB688A642CADCF0BD000070000020A8
:101DE0004C2100087C230008E0F1000010B50246F9
:101DF000002300210AE00D48806900688C00035927
:101E0000987A904200D106E0481CC1B20748806928
:101E100080888842EFDC00BF04488069808888425F
:101E200001D1002010BD1846FCE700007000002022
:101E3000F3B5FFB0FFB085B00746FFA84069410089
:101E4000401881B2FFA8816001AD29468268582000
:101E5000FFF798FE0146FFA8C160C068002805D0C2
:101E60000020C0437FB07FB007B0F0BD0024002643
:101E700015E0A01C2A5C2B1902211846FFF751FE21
:101E8000401C002801D1401EECE7285DB855601CBD
:101E9000285C711C7854E01C84B2B01C86B2FFA888
:101EA00080688442E5DB0020DCE7F8B507460C4695
:101EB00015461E46384600F00DF8401C002801D19A
:101EC000401EF8BD2046FFF73BFF31462846FFF78E
:101ED000AFFFF6E770B50446022221465820FFF70F
:101EE000C0FE0546002D02D00020C04370BD00207A
:101EF000FCE710B5002000F0A3F810BD70B5044653
:101F00000D46012000F09CF8401C002801D1401E25
:101F100070BD0448808B20800248C08B2880002040
:101F2000F6E7000070000020F8B5334C0020214691
:101F30001C390870FFF722FE02232246FF21F531EB
:101F40002E48FFF7B2FF0546681C002801D128463D
:101F5000F8BD2078000221880904090E0843010415
:101F6000227912042068000C1043020223791B041A
:101F70002068000C18430004000E024390B208438E
:101F8000002621790A02A1880904090E0A431204D5
:101F900033046168090C19430B0237046168090CAA
:101FA00039430904090E0B4399B211430022124030
:101FB0000E43104301460204300C1043090C0E4A34
:101FC0001C3AD160906001231C327D21C9000C486D
:101FD000FFF76BFF0546681C002801D1401EB7E7DC
:101FE0000548FFF7B3FE0546681C002801D1401ED6
:101FF000AEE7FFF77EFFABE78C000020442100082E
:102000004621000870B504462068451D20460C3066
:10201000FFF760FF401C002801D1401E70BD28461C
:10202000FFF78EFE2089002806DD01200349087095
:102030002046FFF7E7FCF1E70020EFE77000002003
:1020400070B505462846FFF7D1FE0446002C01D1A5
:10205000401E70BD2046FFF7D5FF401C002801D16F
:10206000401EF6E70020F4E77CB505460C4600204C
:10207000009001902846FFF7F1FC69460870204661
:10208000FFF7DEFC014668464170FFF741FC6946F8
:10209000887104480368044802880448FEF7D7FBA7
:1020A0007CBD0000540000204E0000209806002057
:1020B000F0B585B0054628890190019803900399F1
:1020C0004800FFF769FC0746002406E061001C4851
:1020D000405A61007852601C04B201988442F5DBDA
:1020E0002889401E04B2002623E02889001B401ED8
:1020F00080006968085802906000385C0002610046
:10210000795A0912084380B20090029800680028AA
:1021100007D00298016800988847720008498852E1
:1021200003E07200064900988852601E04B2701CD9
:1021300006B2002CD9DA3846FFF7C0FB05B0F0BD77
:102140008C0000203682202F20320000000000008A
:102150000000000000000000000000000A0C000069
:1021600000000000657468616E6F6C5F7369676E74
:10217000616C000000000000000000000000000092
:10218000000000000000000068325F7369676E6144
:102190006C000000000000000000000000000000D3
:1021A00000000000000000000000000074564F43D3
:1021B000000000000000000000000000000000001F
:1021C000000000000000000000000000000000000F
:1021D000636F325F657100000000000000000000C6
:1021E00000000000000000000000000000000000EF
:1021F00000000000626173656C696E65310000006B
:1022000000000000000000000000000000000000CE
:102210000000000000000000626173656C696E657B
:10222000320000000000000000000000000000007C
:102230000000000000000000102700000000000067
:102240000000000020036961715F696E697400001D
:10225000000000000000000000000000000000007E
:10226000000000000000000050C30000000000203B
:102270000200010020086961715F6D65617375720C
:1022800065000000000000000000000000000000E9
:1022900000000000000000001027000008000020DF
:1022A0000200020020156961715F6765745F6261F9
:1022B00073656C696E65000000000000000000009E
:1022C0000000000000000000E80300000000000023
:1022D00000000300201E6961715F7365745F6261B5
:1022E00073656C696E65000000000000000000006E
:1022F0000000000000000000400D0300100000205E
:1023000002000A0020506D6561737572655F736924
:10231000676E616C730000000000000000000000A8
:102320000000000000000000102700000000000076
:1023300000000C0020617365745F6162736F6C75DF
:1023400074655F68756D69646974790000000000E8
:10235000000000000000000009002000180000201C
:102360000500000058230008010000002C00002098
:10237000060000005A23000801000000440000206D
:102380000200000008000000000000000000000043
:102390000300000000000000080000000100000031
:1023A0000000000003000000000000000200000028
:1023B000000000000000000003000000000000001A
:1023C0000200000001000000000000000300000007
:1023D00000000000000000000000000001020304F3
:1023E0000607080900000000010203040C2400088D
:1023F00000000020700000009C1800087C240008E9
:1024000070000020780C0000AC180008A82100081B
:10241000CC210008F02100081422000860210008E7
:102420008421000838220008682200089822000849
:10243000C8220008F8220008382200086822000894
:1024400098220008C8220008F82200082823000863
:102450006C2300085C230008070007001027000019
:102460001027000000000000040000000100000030
:0C24700000127A000000000000000000D4
:04000005080000B13E
:00000001FF
